:100000000C9463000C948B000C948B000C940D04E6
:100010000C940D040C940D040C948B000C948B0028
:100020000C948B000C948B000C948B000C948B0024
:100030000C948B000C948B000C948B000C948B0014
:100040000C94C3030C948B000C9491030C946B03DD
:100050000C948B000C948B000C948B000C948B00F4
:100060000C948B000C948B000000000024002700EF
:100070002A0000000008000201000003040700003D
:1000800000000000000000000000250028002B00F8
:1000900000000000230026002900040404040404D6
:1000A0000404020202020202030303030303010227
:1000B00004081020408001020408102001020408F6
:1000C00010208704BA0A11241FBECFEFD8E0DEBF8C
:1000D000CDBF11E0A0E0B1E0E4ECFAE102C0059090
:1000E0000D92AC34B107D9F723E0ACE4B1E001C024
:1000F0001D92A930B207E1F710E0C2E6D0E004C0DB
:100100002197FE010E944A0DC136D107C9F70E940E
:100110003F050C94550D0C94000044EB52E0FA019D
:100120002FEF3FEF9E2F941B981788F4919129276A
:1001300098E0B9016170772736952795672B21F0F4
:1001400061E0262760EA3627915099F7EBCF922F8E
:10015000832F0895CF92DF92EF92FF920F931F9318
:10016000CF93DF936C017A018B01C0E0D0E0CE1514
:10017000DF0589F0D8016D918D01D601ED91FC91DB
:100180000190F081E02DC6010995892B11F47E01C3
:1001900002C02196ECCFC701DF91CF911F910F9143
:1001A000FF90EF90DF90CF900895FC01538D448D28
:1001B000252F30E0842F90E0821B930B541710F012
:1001C000CF96089501970895FC01918D828D98171F
:1001D00061F0828DDF01A80FB11D5D968C91928D2B
:1001E0009F5F9F73928F90E008958FEF9FEF089528
:1001F000FC01918D828D981731F0828DE80FF11DF1
:10020000858D90E008958FEF9FEF0895FC01918D0B
:10021000228D892F90E0805C9F4F821B91098F7304
:10022000992708958FEE91E00E94060121E0892B25
:1002300009F420E0822F0895FC01848DDF01A80FCE
:10024000B11DA35ABF4F2C91848D90E001968F73FE
:100250009927848FA689B7892C93A089B1898C911D
:1002600080648C93938D848D981306C00288F389E3
:10027000E02D80818F7D80830895EF92FF920F9310
:100280001F93CF93DF93EC0181E0888F9B8D8C8D42
:10029000981305C0E889F989808185FD24C0F62E70
:1002A0000B8D10E00F5F1F4F0F731127E02E8C8D09
:1002B000E8120CC00FB607FCFACFE889F9898081F3
:1002C00085FFF5CFCE010E941C01F1CF8B8DFE0181
:1002D000E80FF11DE35AFF4FF0820B8FEA89FB898B
:1002E0008081806207C0EE89FF896083E889F9898F
:1002F00080818064808381E090E0DF91CF911F91C5
:100300000F91FF90EF900895CF93DF93EC01888DCC
:100310008823C9F0EA89FB89808185FD05C0A88909
:10032000B9898C9186FD0FC00FB607FCF5CF80818F
:1003300085FFF2CFA889B9898C9185FFEDCFCE01D9
:100340000E941C01E7CFDF91CF91089580E090E0FB
:10035000892B29F00E94120181110C94000008954C
:1003600090E0FC01EE58FF4F3491FC01E255FF4F45
:100370002491FC01E656FF4FE491EE2309F43BC0C3
:10038000332339F1333091F038F43130A9F0323081
:1003900001F584B58F7D12C0373091F03830A1F06F
:1003A0003430B9F4809180008F7D03C0809180004B
:1003B0008F77809380000DC084B58F7784BD09C08E
:1003C0008091B0008F7703C08091B0008F7D8093C3
:1003D000B000F0E0EE0FFF1FEA57FF4FA591B49178
:1003E0008FB7F894EC91611103C020952E2301C0C2
:1003F0002E2B2C938FBF0895CF93DF9390E0FC01B9
:10040000E255FF4F2491FC01E656FF4F849188236B
:1004100061F190E0880F991FFC01E859FF4FC591E9
:10042000D491FC01EA57FF4FA591B491611109C025
:100430009FB7F8948881209582238883EC912E239E
:100440000BC0623061F49FB7F8943881822F809599
:1004500083238883EC912E2B2C939FBF06C08FB7EC
:10046000F894E8812E2B28838FBFDF91CF910895D8
:100470002FB7F8946091910170919201809193014E
:10048000909194012FBF0895209197013091980188
:100490002817390771F4909195018091960198176A
:1004A00041F0E0919501F0E0E45BFE4F808190E047
:1004B00008958FEF9FEF089508951F93CF93DF93D3
:1004C000DC015C962D913C915D972115310539F445
:1004D00081E090E013969C938E9312973DC05196C5
:1004E000ED91FC91529750969C915097892F809551
:1004F0001FB75E964C915E9741FB772770F941FDDF
:100500006095F8944081772311F0492B01C048236E
:100510004083E9012197F1F748E0508160FF02C074
:10052000592B01C058235083E9012197F1F76695B3
:10053000415099F7772321F090818923808303C06C
:100540008081982B90831FBF5C968D919C915D97C5
:100550000197F1F721E030E0C901DF91CF911F91C0
:10056000089520919701309198012817390771F467
:10057000809196012091950190E0805C9F4F821BB5
:10058000910960E470E00E94220D089580E090E0FF
:100590000895209197013091980128173907B9F4EF
:1005A0009091950180919601981789F0E0919501BD
:1005B000F0E0E45BFE4F80812091950130E02F5FF9
:1005C0003F4F2F7333272093950190E008958FEFCD
:1005D0009FEF0895E0919701F0919801E817F907CE
:1005E00069F4A389B4899C918589809589238C932A
:1005F000109298011092970181E0089580E008958B
:10060000089580E090E00895009769F0FC01019062
:100610000020E9F73197AF01481B590BBC018FEE61
:1006200091E00C94AA0080E090E008958F929F9250
:10063000AF92BF920F931F93CF93DF93CDB7DEB7E7
:10064000A1970FB6F894DEBF0FBECDBF19A24230FE
:1006500008F44AE08E010F5D1F4F842E912CA12CCF
:10066000B12CA50194010E94C40AE62FB901CA0168
:1006700001501109EA3014F4E05D01C0E95CD801D1
:10068000EC93232B242B252B61F7C8010E94040334
:10069000A1960FB6F894DEBF0FBECDBFDF91CF910C
:1006A0001F910F91BF90AF909F908F900895CF931F
:1006B000DF93BC0180E090E04AE00E941603EC0169
:1006C0008CE291E00E9404038C0F9D1FDF91CF917B
:1006D00008950E94500D1F920F920FB60F92112491
:1006E0002F933F934F935F936F937F938F939F933A
:1006F000AF93BF93EF93FF938FEE91E00E941C01A5
:10070000FF91EF91BF91AF919F918F917F916F91E9
:100710005F914F913F912F910F900FBE0F901F90BF
:1007200018951F920F920FB60F9211242F938F934B
:100730009F93EF93FF93E091FF01F091000280817E
:10074000E0910502F091060282FD12C09081809135
:1007500008028F5F8F7320910902821751F0E09198
:100760000802F0E0E151FE4F958F8093080201C02E
:100770008081FF91EF919F918F912F910F900FBEEC
:100780000F901F9018951F920F920FB60F92112481
:100790002F933F938F939F93AF93BF93809191013A
:1007A00090919201A0919301B091940130919001A8
:1007B00023E0230F2D3720F40196A11DB11D05C0A4
:1007C00026E8230F0296A11DB11D2093900180936E
:1007D000910190939201A0939301B0939401809121
:1007E0008C0190918D01A0918E01B0918F010196A5
:1007F000A11DB11D80938C0190938D01A0938E015A
:10080000B0938F01BF91AF919F918F913F912F91A5
:100810000F900FBE0F901F9018951F920F920FB65A
:100820000F9211242F933F934F935F936F937F9376
:100830008F939F93AF93BF93EF93FF93E0919701B3
:10084000F0919801309709F451C0968DA685B7852F
:10085000858591FF04C09C91892329F447C09C9110
:10086000892309F043C0A389B4899C918589809527
:1008700089238C93868997890197F1F7608D718D13
:10088000A685B785558538E020E0CB010197F1F7C3
:10089000822F90E095958795282F4C91452309F05C
:1008A0002068315091F7868D81FD209580919601C9
:1008B00090E001968F73992730919501381749F090
:1008C000A0919601B0E0A45BBE4F2C93809396015B
:1008D00003C0868D8160868F828D938D0197F1F79D
:1008E000A389B4899C918589892B8C93FF91EF9181
:1008F000BF91AF919F918F917F916F915F914F9138
:100900003F912F910F900FBE0F901F90189510924E
:10091000F2011092F10188EE93E0A0E0B0E0809344
:10092000F3019093F401A093F501B093F6012CE04C
:1009300031E03093F0012093EF0125EC30E030936B
:10094000FC012093FB0124EC30E03093FE01209366
:10095000FD0120EC30E0309300022093FF0121ECF8
:1009600030E0309302022093010222EC30E0309319
:1009700004022093030226EC30E030930602209319
:100980000502109208021092090210920A021092B7
:100990000B021092AF0224E02093B0021092B10239
:1009A00028EE33E03093FF022093FE0210928F0274
:1009B00010928E028093900290939102A0939202E3
:1009C000B09393028EE191E090938D0280938C021C
:1009D0001092A3021092A2021092A5021092A402F9
:1009E0001092A7021092A6021092A9021092A802D9
:1009F0006091AA026E7F6D7F6093AA026695617016
:100A000081E068278BE00E94B00161E08BE00E94EA
:100A1000FC01E9EBF0E0E491E0939C02E5EAF0E010
:100A2000E491F0E0EE0FFF1FEA57FF4F859194919C
:100A300090939E0280939D0260E08AE00E94FC01F8
:100A40008091AA0281FD04C061E08AE00E94B001A9
:100A50008AE080939802E8EBF0E0E491E093990259
:100A6000E4EAF0E0E491F0E0EE0FFF1FE057FF4F03
:100A70008591949190939B0280939A020895789423
:100A800084B5826084BD84B5816084BD85B5826093
:100A900085BD85B5816085BD80916E008160809344
:100AA0006E001092810080918100826080938100AD
:100AB00080918100816080938100809180008160BD
:100AC000809380008091B10084608093B100809118
:100AD000B00081608093B00080917A008460809340
:100AE0007A0080917A00826080937A0080917A0007
:100AF000816080937A0080917A00806880937A0088
:100B00001092C10081E08093C90193E09093CA01E3
:100B100025E030E03093CC012093CB0121E030E0A0
:100B20003093CE012093CD0149EA51E05093D0019A
:100B30004093CF018093D1019093D20147E050E0E0
:100B40005093D4014093D3013093D6012093D50123
:100B50006BEA71E07093D8016093D7018093D9015B
:100B60009093DA0160E172E07093DC016093DB0145
:100B700062E070E07093DE016093DD016DEA71E088
:100B80007093E0016093DF018093E1019093E201B3
:100B900061E17BE07093E4016093E3013093E6014F
:100BA0002093E50165EB71E07093E8016093E70144
:100BB0008093990196E090939A0150939C01409301
:100BC0009B0130939E0120939D0149EB51E050938E
:100BD000A00140939F018093A1019093A20140E066
:100BE00053E15093A4014093A3013093A6012093B5
:100BF000A5014BEB51E05093A8014093A7018093CE
:100C0000A9019093AA0141E056E25093AC014093B0
:100C1000AB013093AE012093AD014DEB51E0509309
:100C2000B0014093AF018093B1019093B20143E0D2
:100C300056E25093B4014093B3013093B601209330
:100C4000B5012FEB31E03093B8012093B701E0916B
:100C5000FF01F091000282E08083E091FB01F091BE
:100C6000FC011082E091FD01F091FE018FEC808388
:100C700010920702E0910302F09104029083E09148
:100C80000102F0910202808180618083E091010283
:100C9000F0910202808188608083E0910102F091EE
:100CA0000202808180688083E0910102F09102025B
:100CB00080818F7D80838CE892E09093AE02809358
:100CC000AD021092A7021092A6021092A5021092F5
:100CD000A4021092A3021092A2028DE991E09093D7
:100CE000A9028093A80290919802963108F057C00B
:100CF0002DEB30E03093A3022093A2022BE931E0E8
:100D00003093A5022093A4022CE231E03093A70295
:100D10002093A60220916800983050F031E09E3078
:100D200008F430E081E001C0880F3A95EAF701C08D
:100D300084E0822B80936800983038F09E3040F039
:100D4000963148F020E030E008C02DE630E005C0E4
:100D50002BE630E002C02CE630E03093A002209376
:100D60009F02983030F481E001C0880F9A95EAF72D
:100D70000EC0292F30E09E3018F42850310902C0EF
:100D80002E50310981E001C0880F2A95EAF780933F
:100D9000A1028091A8029091A9020197F1F7809198
:100DA000A6029091A702892B21F180919701909141
:100DB000980122E08C389207E1F0009711F00E9430
:100DC000EA028091AA028E7F8093AA021092960175
:100DD000109295018CE892E090939801809397018E
:100DE000E0919F02F091A00290818091A102892B55
:100DF00080838091B102823040F061E00E94FC016A
:100E000060E08091B1020E94B0018091AD029091AA
:100E1000AE02DC01ED91FC910284F385E02D099591
:100E200097FFF3CF1092F4021092F5021092FD0298
:100E30001092FC021092FB021092FA021092F90238
:100E40001092F80282E390E09093FF028093FE02FA
:100E50000E943802DC01CB014496A11DB11D809394
:100E6000EA019093EB01A093EC01B093ED01109295
:100E7000E9011092EE0161E089E00E94FC01D6E0F8
:100E800017E080E091E0C8E0C80F0FEF8091EE011D
:100E90008130E9F020F0823009F44BC168C360E092
:100EA00089E00E94B0010E943802C090EA01D0900F
:100EB000EB01E090EC01F090ED01C616D706E806D4
:100EC000F90608F054C381E08093EE0150C361E05D
:100ED00089E00E94B001E091E901B8E0EB9FF001E8
:100EE0001124E753FE4F3081218142815381848157
:100EF00095810680F781E02D6091AF02611109C1F3
:100F00006091B202611105C16FEF630F673F08F096
:100F100000C1F093F702E093F6023093B4022093FD
:100F2000B5025093B6024093B7022530C9F040F4A1
:100F3000213008F468C09093B8028093B9021BC0B6
:100F40002F30E1F0203181F1263009F05CC0818141
:100F50008093B80280818093B9022093F40253C039
:100F600081E020813181232B09F480E081958093F9
:100F7000B8021092B902D093F40245C09C0154E02B
:100F8000369527955A95E1F7220FAC014F705527FA
:100F9000452B09F02F5F9093B8028093B9022093FC
:100FA000BA021093F4022FC09093B8028093B90252
:100FB000282F220F2093BA021093F402DF0140E0A1
:100FC00050E048175907F9F02091F402E22FF0E0C1
:100FD000E555FD4F11963C9111973187E1E0E20F05
:100FE000E093F402EE2EF12CF701E555FD4F7F0161
:100FF000FD0130811296F70131872E5F2093F402B4
:101000004F5F5F4FDECFF090F4028F2D0E948D0076
:10101000EF2DF0E0E555FD4F9187E1E0EF0DF0E0B9
:10102000E555FD4F8187F394F394F092F40280919B
:10103000B102823040F09091C00090649093C00063
:1010400061E00E94B0018091B0024091F4028430CE
:1010500028F48091AB029091AC0204C08091AD0263
:101060009091AE02DC01ED91FC9150E00280F381A1
:10107000E02D64EB72E009958091B102823038F086
:101080009091C00096FFFCCF60E00E94B00180917B
:10109000B002843080F58091AB029091AC02DC010B
:1010A000ED91FC910284F385E02D099597FFF3CF34
:1010B0001092F4020E9438022091FE023091FF0249
:1010C000DC01CB01820F931FA11DB11D809304038E
:1010D00090930503A0930603B09307038091FA024F
:1010E0009091FB0201969093FB028093FA0281E0BB
:1010F0008093B2020EC08091AD029091AE02DC01ED
:10110000ED91FC910284F385E02D099597FFF3CFD3
:10111000CFCF8091EE018F5F8093EE018091E90146
:101120008F5F863018F48093E90121C21092E901A3
:101130001EC260E089E00E94B0018091B00284305C
:1011400028F48091AB029091AC0204C08091AD0272
:101150009091AE02DC01ED91FC910084F185E02DCF
:101160000995F82E0E9438028090040390900503A0
:10117000A0900603B090070386169706A806B90646
:1011800028F41092B2020093B302A7C0FF2009F422
:10119000F7C08091F502F81691F0F092F5020E94E6
:1011A0003802DC01CB010596A11DB11D809300031F
:1011B00090930103A0930203B0930303E1C00E9444
:1011C0003802C0900003D0900103E0900203F09039
:1011D00003036C157D058E059F0508F4D1C01092A0
:1011E000F5028091B102823018F060E00E94B001F7
:1011F0001092F4028091B002D12C843008F045C0E6
:101200008091AB029091AC02DC01ED91FC910084E5
:10121000F185E02D0995892B09F444C0E090F40292
:10122000F12C8091AB029091AC02DC01ED91FC912C
:101230000284F385E02D0995F701E555FD4F81877F
:101240008091F4028F5F8093F4028034C8F2DD2431
:10125000D394D6CFE090F402F12C8091AD0290911E
:10126000AE02DC01ED91FC910284F385E02D09953D
:10127000F701E555FD4F81878091F4028F5F8093E0
:10128000F402803410F0DD24D3948091AD0290916B
:10129000AE02DC01ED91FC910084F185E02D099511
:1012A000892BC1F68091F8029091F90201969093F2
:1012B000F9028093F802DD2051F08091FC029091B8
:1012C000FD0201969093FD028093FC0204C0809180
:1012D000F402873064F41092B2028091FC02909183
:1012E000FD0201969093FD028093FC0249C0E82E16
:1012F000F12C82500E948D00F701E555FD4F2781AA
:1013000030E0322F22274085242B8217930751F09B
:101310008091FC029091FD0201969093FD028093D2
:10132000FC022CC08091B50287FDF2CFE0E0F1E035
:101330009191981719F0CE13FBCFEACF83508230EA
:10134000E8F44091F6025091F70280E0E82FEE0FAA
:10135000ED5F9091B6029695891780F4DA01A80F97
:10136000B11DA80FB11DF0E0E555FD4F2285918517
:1013700030E0392B2D933C938F5FE8CF1092B2026F
:101380008091B2028111F3C01092EE010E943802E6
:10139000DC01CB014496A11DB11D8093EA0190931D
:1013A000EB01A093EC01B093ED018FE291E00E947C
:1013B00004038091A9019091AA010E94570383E33D
:1013C00091E00E9404038091AB019091AC010E94D6
:1013D000570387E391E00E9404038091AD0190914F
:1013E000AE010E9457038BE391E00E9404036091D9
:1013F000B5017091B60180E090E00E94F90B20E009
:1014000030E040E250E40E94580B6B017C014B013C
:101410005C019B01AC010E941D0D882319F08FE334
:1014200091E01AC026013701E89477F82FEF3FEFDB
:101430004FE75FE7C301B2010E941D0D81110FC08C
:101440002FEF3FEF4FE75FE7C301B2010E94530B5D
:1014500018162CF483E491E00E94040384C02FEF5B
:101460003FEF4FE75FE4C701B6010E94AB0C1816CF
:101470001CF487E491E0F0CF2FEF3FEF4FE75FECF4
:10148000C701B6010E94530B87FDF3CF20E030E087
:10149000A901C701B6010E94530B87FF11C0E0915B
:1014A000EF01F091F0010190F081E02D6DE28FEEFF
:1014B00091E0099546015701B7FAB094B7F8B09496
:1014C0002AE037ED43EA5BE3C501B4010E94E70A75
:1014D0004B015C010E94CA0B6B017C010E94F90B5D
:1014E0009B01AC01C501B4010E94E60A4B015C01FD
:1014F0004AE0C701B6010E941603E091EF01F091A6
:10150000F0010190F081E02D6EE28FEE91E00995FF
:1015100020E030E040E251E4C501B4010E94B00C8B
:101520004B015C010E94CA0B6B01E12CF12C4AE0DB
:10153000C701B6010E941603C701B6010E94F90B4C
:101540009B01AC01C501B4010E94E60A20E030E035
:1015500040E251E40E94B00C0E94CA0B80E090E08F
:101560004AE00E9416038CE291E00E9404030E946C
:10157000A6018CCC8EE191E090938D0280938C0239
:101580008CE892E00C94EA02A1E21A2EAA1BBB1B83
:10159000FD010DC0AA1FBB1FEE1FFF1FA217B3073F
:1015A000E407F50720F0A21BB30BE40BF50B661F55
:1015B000771F881F991F1A9469F760957095809519
:1015C00090959B01AC01BD01CF0108955058BB27F8
:1015D000AA270E94FE0A0C94710C0E94630C38F03A
:1015E0000E946A0C20F039F49F3F19F426F40C9401
:1015F000600C0EF4E095E7FB0C945A0CE92F0E9466
:10160000820C58F3BA17620773078407950720F016
:1016100079F4A6F50C94A40C0EF4E0950B2EBA2FD9
:10162000A02D0B01B90190010C01CA01A0011124E8
:10163000FF27591B99F0593F50F4503E68F11A1694
:10164000F040A22F232F342F4427585FF3CF469525
:1016500037952795A795F0405395C9F77EF41F1647
:10166000BA0B620B730B840BBAF09150A1F0FF0F11
:10167000BB1F661F771F881FC2F70EC0BA0F621FFD
:10168000731F841F48F4879577956795B795F795ED
:101690009E3F08F0B0CF9395880F08F09927EE0F82
:1016A0009795879508950E94360C08F481E0089577
:1016B0000E946C0B0C94710C0E946A0C58F00E94F2
:1016C000630C40F029F45F3F29F00C945A0C51113F
:1016D0000C94A50C0C94600C0E94820C68F3992366
:1016E000B1F3552391F3951B550BBB27AA2762171E
:1016F0007307840738F09F5F5F4F220F331F441F2B
:10170000AA1FA9F335D00E2E3AF0E0E832D091505E
:101710005040E695001CCAF72BD0FE2F29D0660F4B
:10172000771F881FBB1F261737074807AB07B0E88E
:1017300009F0BB0B802DBF01FF2793585F4F3AF094
:101740009E3F510578F00C945A0C0C94A50C5F3F09
:10175000E4F3983ED4F3869577956795B795F7951A
:101760009F5FC9F7880F911D9695879597F9089502
:10177000E1E0660F771F881FBB1F6217730784079E
:10178000BA0720F0621B730B840BBA0BEE1F88F7AD
:10179000E09508950E948A0C88F09F5798F0B92F21
:1017A0009927B751B0F0E1F0660F771F881F991F96
:1017B0001AF0BA95C9F714C0B13091F00E94A40C88
:1017C000B1E008950C94A40C672F782F8827B85F98
:1017D00039F0B93FCCF3869577956795B395D9F7EE
:1017E0003EF490958095709561957F4F8F4F9F4FF8
:1017F0000895E89409C097FB3EF490958095709504
:1018000061957F4F8F4F9F4F9923A9F0F92F96E94C
:10181000BB279395F695879577956795B795F111C1
:10182000F8CFFAF4BB0F11F460FF1BC06F5F7F4F5E
:101830008F4F9F4F16C0882311F096E911C0772370
:1018400021F09EE8872F762F05C0662371F096E879
:10185000862F70E060E02AF09A95660F771F881F48
:10186000DAF7880F9695879597F90895990F0008EC
:10187000550FAA0BE0E8FEEF16161706E807F90762
:10188000C0F012161306E407F50798F0621B730BFD
:10189000840B950B39F40A2661F0232B242B252B7E
:1018A00021F408950A2609F4A140A6958FEF811D21
:1018B000811D089597F99F6780E870E060E00895C2
:1018C0009FEF80EC089500240A9416161706180658
:1018D0000906089500240A94121613061406050634
:1018E0000895092E0394000C11F4882352F0BB0FC5
:1018F00040F4BF2B11F460FF04C06F5F7F4F8F4F28
:101900009F4F089557FD9058440F551F59F05F3F62
:1019100071F04795880F97FB991F61F09F3F79F011
:1019200087950895121613061406551FF2CF469593
:10193000F1DF08C0161617061806991FF1CF869515
:101940007105610508940895E894BB2766277727F9
:10195000CB0197F908950E94360C08F48FEF089593
:101960000E94C30C0C94710C0E94630C38F00E940E
:101970006A0C20F0952311F00C945A0C0C94600C16
:1019800011240C94A50C0E94820C70F3959FC1F356
:10199000950F50E0551F629FF001729FBB27F00D1D
:1019A000B11D639FAA27F00DB11DAA1F649F662772
:1019B000B00DA11D661F829F2227B00DA11D621FC1
:1019C000739FB00DA11D621F839FA00D611D221F7B
:1019D000749F3327A00D611D231F849F600D211D5F
:1019E000822F762F6A2F11249F5750409AF0F1F0E2
:1019F00088234AF0EE0FFF1FBB1F661F771F881F4B
:101A000091505040A9F79E3F510580F00C945A0C1C
:101A10000C94A50C5F3FE4F3983ED4F3869577953C
:101A20006795B795F795E7959F5FC1F7FE2B880FF0
:101A3000911D9695879597F908950E94360C880B0D
:101A4000990B089597FB072E16F4009407D077FDA5
:101A500009D00E94360D07FC05D03EF49095819583
:101A60009F4F0895709561957F4F0895AA1BBB1BEA
:101A700051E107C0AA1FBB1FA617B70710F0A61B8E
:101A8000B70B881F991F5A95A9F780959095BC01AF
:101A9000CD010895EE0FFF1F0590F491E02D0994FC
:101AA00081E090E0F8940C94550D10E0C2E6D0E08F
:101AB00004C0FE010E944A0D2196C336D107C9F722
:041AC000F894FFCFC8
:101AC4000102030405060F10000000003D01AA00F6
:101AD400D50084010601E400F800000000005D0266
:101AE400AA0001035C02B102C90244020D0A0053B8
:101AF4004B4900534B4F00534B4300534B41006E33
:0C1B0400616E00696E66006F766600007E
:00000001FF
